:020000040800F2
:10000000C02F0020853B0008CFB10008713B0008DD
:10001000713B0008713B0008713B000800000000C4
:10002000000000000000000000000000893C000803
:10003000713B000800000000553C00088D7000086E
:100040004D3E00084D3E00084D3E00084D3E000864
:100050004D3E00084D3E00084D3E00084D3E000854
:100060004D3E00084D3E00084D3E00084D3E000844
:100070004D3E00084D3E00084D3E00084D3E000834
:100080004D3E00084D3E00084D3E00084D3E000824
:100090004D3E00084D3E00084D3E00084D3E000814
:1000A0004D3E00084D3E00084D3E00084D3E000804
:1000B0004D3E00084D3E00084D3E00084D3E0008F4
:1000C0004D3E00084D3E00084D3E00084D3E0008E4
:1000D0004D3E00084D3E00084D3E00084D3E0008D4
:1000E0004D3E00084D3E00084D3E00084D3E0008C4
:1000F0004D3E00084D3E00084D3E00084D3E0008B4
:100100004D3E00084D3E00084D3E00084D3E0008A3
:100110004D3E00084D3E00084D3E00084D3E000893
:100120004D3E00084D3E00084D3E00084D3E000883
:080130004D3E00084D3E0008A1
:1001380053B94AB9002908BF00281CBF4FF0FF3146
:100148004FF0FF3000F00CB8ADF1080C6DE904CEAB
:1001580000F008F8DDF804E0DDE9022304B0704798
:10016800704700BF2DE9F04786468C460846089E32
:10017800154674461946002B40F0C2808542B2FAF3
:1001880082F245D94AB1C2F1200300FA02FC2EFAE4
:1001980003F3954043EA0C0C94404FEA154EA8B27D
:1001A800BCFBFEF8230C0EFB18CC08FB00F943EA55
:1001B8000C43994528D9EB1808F1FF3704D2994523
:1001C80002D9A8F102072B44A3EB0903A4B2B3FB9D
:1001D800FEFC0EFB1C330CFB00F044EA0344A04277
:1001E80014D92C190CF1FF3304D2A04202D9ACF176
:1001F80002032C44241A43EA07401EB1D4400023CA
:1002080034607360BDE8F0874746DDE76346F1E791
:1002180092BB431B01214FEA154EAFB2B3FBFEFC64
:10022800200C0EFB1C330CFB07F840EA03439845EF
:1002380062D9EB180CF1FF3004D2984502D9ACF121
:1002480002002B44A3EB0803A4B2B3FBFEFC0EFB95
:100258001C330CFB07F744EA0344A7424ED92C1978
:100268000CF1FF3304D2A74202D9ACF102032C44AB
:10027800E41B43EA0040C0E7C2F1200320FA03F17F
:10028800954090402EFA03F303434FEA154EAFB260
:10029800B1FBFEFC0EFB1C10190C0CFB07F841EA25
:1002A8000041884504FA02F422D969180CF1FF309C
:1002B80004D2884502D9ACF102002944A1EB080117
:1002C8009BB2B1FBFEFC0EFB1C110CFB07F743EACB
:1002D80001439F420ED9EB180CF1FF3104D29F4223
:1002E80002D9ACF102012B44DB1B41EA004192E741
:1002F8006046E3E76146F7E76046A3E76346B7E78A
:10030800834206D916B9002108467BE7C6E900E012
:10031800F9E7B3FA83F78FB9834201D3724508D856
:10032800BEEB020460EB030301209C461EB90021CA
:1003380068E73846FAE7C6E9004CF8E7C7F1200C49
:10034800BB4022FA0CF41C432EFA0CF120FA0CF3F1
:10035800B84001434FEA14490EFA07F5B3FBF9F820
:100368001FFA84FE09FB18300B0C08FB0EFA43EA4F
:1003780000439A4502FA07F240D9E31808F1FF3022
:1003880004D29A4502D9A8F102002344A3EB0A0338
:1003980089B2B3FBF9F809FB183308FB0EFE41EAF2
:1003A80003418E452CD9611808F1FF3304D28E45DC
:1003B80002D9A8F10203214443EA0040A0FB0298B5
:1003C800A1EB0E014145CE46434602D306D14D4529
:1003D80004D2B9EB020E68EB04030138002EA6D054
:1003E800B5EB0E0261EB030101FA0CFC22FA07F3EC
:1003F8004CEA0303F940C6E9003198E74046C5E7EF
:100408004346D9E7034611F8012B03F8012B002ACC
:10041800F9D17047034613F8012B002AFBD1181AAB
:10042800013870470E480F490F4D104C08B5AB23E3
:100438000380BA2343800430FFF7E4FF4EF66223BB
:100448002B8000F07BFD00F013F82146284601F0D0
:1004580085FAAC2304F8013D204600F0BDFAFBE71D
:10046800BC07002020D30008B0070020DB1B0020B9
:1004780030B51A4D85B028680CF094F8034650B989
:10048800174A18490090CDE9010201220AF072FBCF
:10049800002005B030BD1449144B0B604FF41063B5
:1004A8008B8001238B712868114B8B6000248C8111
:1004B80083681B6898470F4BA0421860E8DA0E4B18
:1004C8000390CDE9014320460649009423460322C0
:1004D8000AF050FB4FF0FF30DBE700BF00000020C0
:1004E80025D3000894CD00080C040020C0CA893622
:1004F80008001401080400203CD300081FB50F4B66
:1005080042790146063218680AF031FB0C4B002884
:1005180018600EDA0B4B029300231846CDE900331E
:10052800094903220AF026FB4FF0FF3005B05DF8B9
:1005380004FB01F0CBFA0120F8E700BF000000201F
:100548000804002054D3000894CD00082DE9F04F8A
:100558000178A1F1A20387B004460E2B00F2208295
:10056800DFE813F05A010002EA011E020F005C01E5
:100578007D01DC01E80149014E0154011E021E0201
:100588000F02BA4E013031460AF05CFB002809DA46
:10059800B74BB84819680CF096F94FF0FF3007B020
:1005A800BDE8F08FB44BB54D1B886B8033782B704A
:1005B800FE227388A871311DE81DAB800CF067F925
:1005C8000023AF4985F80531284601F037F933781B
:1005D8005A1E012A00F28B80AA4FDFF8A4A2DFF886
:1005E800A8820326AA79386851460AF0C0FAAB886F
:1005F800C8F80000002803930EDAA44B02930023E6
:10060800CDE90033A249012218460AF0B3FA013EA7
:1006180016F0FF06E6D157E000249E4B9C49029352
:10062800032223462046CDE90044DFF86CB2DFF808
:100638006C920AF09FFA01F0CFFACDF804B0CDF829
:1006480000909749386842F2107200230AF0A1FA24
:10065800A042C8F800000ADA924B8D490094CDE90F
:1006680001430322234620460AF084FACFE78E4846
:100678000AF000F89BF80020B9F90010DFF82CB256
:10068800DFF82C928B4809F0E3FF5A468448494624
:1006980001F022F999F80020032A17D1059201F0F8
:1006A80015FA854809F0E6FFB9F802300393834B41
:1006B800059A77490094CDE90143204623460AF07C
:1006C80059FA7F4809F0D6FF002068E77D4BBBF850
:1006D80000201B889A429AD17B4B6D490094CDE942
:1006E80001430122234620460AF044FAECE7042B92
:1006F800EAD1644FDFF88891DFF88C810326AA7964
:10070800386849460AF033FA0028C8F800000CDABD
:100718006E4B02930023CDE900335D490122184650
:100728000AF028FA013EEAD1CEE7AB880393002409
:10073800674B57490293032223462046CDE90044DC
:100748000AF018FA634B0393634B51490094CDE9BF
:1007580001430322234620460AF00CFA4E4B01932C
:100768004E4B00934E49386842F2107200230AF04B
:1007780010FAA042C8F800001CDA584B444900940B
:10078800CDE901430322234620460AF0F3F900216C
:1007980041F2883008F004FE514B3D491B78039321
:1007A800504B02930023CDE90033032218460AF088
:1007B800E1F9B7E7DFF8F8A03C4A3948514601F0BB
:1007C8008BF89AF80030052B7FF47EAF464B0094E7
:1007D800CDE9014320462346444C2D4903220AF023
:1007E800C9F921460AF107000AF0E3F9218B4048CC
:1007F80009F02EFFCBE700F027FE0023237063E704
:1008080000F042FE3B4809F035FFF6E73A4809F0A8
:1008180031FF00F05DFCF0E73848F4E7384D39481F
:1008280009F028FF384809F025FF2946601C0AF01E
:10083800E3F905F10C01354809F00AFFA91C344811
:1008480009F006FF2988334809F002FF286869681B
:10085800AA6805F10C0300F087FE2A48D3E72E4862
:1008680009F008FF00F0E8FCC7E700BFA609002070
:1008780010CF00089FD30008CA100020A00800204D
:10088800D91C00200000002008040020C5D300085F
:1008980094CD0008F5D30008D21F0020B60B002025
:1008A800D31F00201AD40008D0D40008B80B0020A9
:1008B800C00C002081D3000841D400089CD4000853
:1008C800CFD40008C60D00202AD500083DD5000861
:1008D80056D50008A7080020B5E0000889D500080B
:1008E80000210020BDD500087DD80008F8070020A9
:1008F800AAD50008DCD5000808D6000825D60008C7
:10090800D807002050D6000892D60008AAD60008BA
:10091800C0D60008D9D60008F2D60008224D2348D0
:1009280009F0A8FE2946601C00F03EFB288800F06C
:10093800EDFE62E71E4866E71E4D1F4809F09AFE65
:100948002946601C00F012FF002809DDD5F80210C6
:10095800D5F80620D5F80A30288800F0C3FC4CE703
:10096800164850E7164D174809F084FE2946601CC2
:1009780000F01AFB28686968AA6800F037FB12487B
:1009880041E7124D124809F075FE2946601C00F037
:1009980039FF28686968AA68AB8900F00BFF93E6FD
:1009A8000C4809F055FE28E7C80D002016D70008A6
:1009B80027D70008CA0700204BD700086CD70008C3
:1009C8009408002088D70008A4D70008A20A0020AD
:1009D800CAD7000805D800082DE9F04FAC4E87B0FB
:1009E8000746AC4800F092FD337813B9304600F062
:1009F800A5FBDFF8A4A2DFF8A482DFF8A492CDF863
:100A08000480CDF80090A749DAF80000DFF898B222
:100A180047F2305200230AF0BCF80028CBF8000057
:100A280010DAA24B029300231846CDE90033A049FF
:100A380003220AF09FF83846FFF788FD002007B028
:100A4800BDE8F08F9B4C9C4D96482246294600F005
:100A580043FFE81D09F00EFE984B1A8823889A4236
:100A68000AD1974B02930023CDE900330122904924
:100A780018460AF07FF8C6E02A78511E0023032999
:100A880000F21782DFE811F00400A30007026501F5
:100A98008C48DFF800A209F0EDFD00248A4B029390
:100AA80003222346CDE90044814920460AF062F832
:100AB800AA88BAF800309A4221D0DFF8D481DFF84A
:100AC800E49127463378A34252DD6A88B8F80230A9
:100AD8009A4210D14846FFF711FD002870DD00F05A
:100AE800F5FF7A4B0097CDE9017303220023704983
:100AF80018460AF03FF8013408F10C08E2E7644FA1
:100B0800DFF8CCB133786A88A34235DC714B1978A9
:100B180001F0FF0359B904926F4A03926F4A64497E
:100B28000093CDE90132184603220AF023F86C48F5
:100B3800BAF8003043806B88838003240023694916
:100B48008371047000F07AFE6648FFF7D7FC05460B
:100B580001F042F842F21070002108F021FC013C3B
:100B6800F2D1002D28DD5F4B5F48197809F070FD40
:100B7800544809F07FFD46E07B88934219D1B9F9C2
:100B8800002098F80010594809F062FD524B484976
:100B9800CDE902B300231846CDE90033032209F05A
:100BA800E9FF3A1D7988524809F052FD494B012264
:100BB8001A7001340C37A5E74E4809F049FDD7E70C
:100BC8004D4B0097CDE90173012200238FE74B4A73
:100BD8004B4C0093CDE901320023184634490322D7
:100BE80009F0C8FF474AA888214600F0E9FA238897
:100BF8006BB9DFF89C80DFF8AC901C461F46337851
:100C0800A34200F389802D4A0023138016E7327827
:100C1800698800239A42F6DDA08C884204F10C040E
:100C280040F095802C4B03930024374B20490293C6
:100C3800032223462046CDE9004409F09BFF6B8838
:100C48000393324B1A490094CDE90143032223460A
:100C5800204609F08FFFB9F90030049398F8003066
:100C680003932B4B12490094CDE9014303222346F9
:100C7800204609F07FFF0B48FFF740FCA04264DDE7
:100C8800244B0094CDE9014323460322EFE600BF3D
:100C9800700E0020CA10002000000020D21F002083
:100CA800B60B0020D31F00200804002022D800081B
:100CB80094CD0008B80B0020BA0B0020C60D002008
:100CC80037D800084DD8000892D80008BDD90008C8
:100CD800D4D80008D11F0020C10B00201BD9000860
:100CE800C00C0020D91D002076D90008B0D8000813
:100CF800EAD8000888D90008DCD9000897D9000884
:100D0800D40D0020D6100020E8D9000803DA000826
:100D180023DA0008BCD900086A88B8F802309A4279
:100D28000FD14846FFF7EAFB0028CCBF674B684B5A
:100D380068490097CDE9017300230322184609F09A
:100D480019FF013408F10C0859E7634B99E701339F
:100D580060E7624A0093CDE90132002318465D49F5
:100D6800032209F007FF317868885D4A0023994219
:100D78000EDD5488844202F10C0213D0594B0293C1
:100D88000023CDE9003353490122184609F0F2FE49
:100D9800554E564AA888314600F012FA33881BB9D6
:100DA8005348E6E60133E2E7DFF84891328BB9F8B9
:100DB80000309A4201D05048DBE6504B02930023A2
:100DC800CDE900334349DFF838810322184609F09A
:100DD800D1FE98F800303B2B11D841F28830002121
:100DE80008F0DEFA3B78A12B0FD1464B0293002383
:100DF800CDE9003337490122184609F0BBFE424BC2
:100E080002930023CDE900333FE7A02B32D1002421
:100E18003E4B0293CDE9004423462E490322204647
:100E280009F0A8FEB37D132BE9D839492E48F822DA
:100E380000F034FC374B6A889A8005221A70B9F89A
:100E480000205A803249F822D81D0BF0A8FD314BFA
:100E58003149184600F0F2FC2F49DAF800004FF447
:100E6800807209F084FEA042CBF8000008DD2B4810
:100E780009F0EEFB98F80030013388F80030A8E755
:100E8800274B14490094CDE901430122234620460B
:100E980009F070FEEEE7234809F0ECFB2248FFF763
:100EA8002DFB0028CCBF2148214809F0E3FB21484D
:100EB8005FE60392204A0093CDE9013200230549F9
:100EC8000322184609F056FE9DE600BFB9D900086E
:100ED800D8D9000894CD0008DBD9000848DA000802
:100EE800700E00205FDA0008D40D0020D610002014
:100EF800A3DA0008CA100020B1DA0008DFDA000817
:100F0800FF200020F8DA00084DDB000808DB0008A5
:100F1800D91E0020B00A0020D91D002020DB0008BF
:100F28003ADB00086DDB0008D31F002095DB0008C2
:100F3800B6DB0008CFDB0008F8DB000830B5144C3E
:100F48001448A06285B00BF02DFB28B9A36A12489B
:100F5800196809F0F0FE0CE04FF47031A06A2160C6
:100F680001AA0AF076FA0D4D286028B10C4809F05C
:100F7800E2FE012005B030BD4FF482232046E36035
:100F880001F038FB28600028F4D001460548E0E766
:100F98002404002054CB000813DC0008200400209F
:100FA80031DC00084ADC000810B500B139B90D4B36
:100FB8000D4819680BF087FC4FF0FF3010BD024652
:100FC8000B4632F8024B64BA23F8024BD0F8020001
:100FD800C1F8020050685860127A1A720020C8726C
:100FE800ECE700BF10CF000866DC000830B5314CD4
:100FF80085B001AD85E8070040F25A232E48224605
:10100800052109F0F5FF002844DD2078C72822D8FB
:10101800BDF8041022460023984221DC0C2505FB6C
:1010280000431846598009220DF1060104300BF0DF
:101038002EFC237805FB0345002201336A731D4A01
:10104800237040F25A231C48052101F0A5FC002812
:101058001EDD1A480AE01A4809F00CFB05B030BD3D
:1010680055888D4202F10C0210D1164809F002FB96
:1010780021780029F2D04A1E0C235A43A3180432BF
:101088005B881148224409F0E3FAE7E70133C3E734
:101098000E48EBE72246012302F8023B2B4603CB1E
:1010A800C4F8020018685160906040F25A23224642
:1010B800C9E700BF6619002024040020D3DC00081B
:1010C80092DC0008A9DC000829DD0008F8DC00082B
:1010D800F8B5144D144840F25A232A46052109F060
:1010E80087FF002804DC1148BDE8F84009F0C2BABF
:1010F800297809B90E48F7E70E480F4F09F0A8FA02
:1011080000242B462A78A24203F10C0600DCF8BD25
:101118000134043336F80A2C2146384609F098FA87
:101128003346EFE766190020240400203EDD00085E
:1011380066DD000881DD000896DD0008F8B5044684
:1011480030B9184B18481968BDE8F8400BF0BBBB1C
:10115800024640F25A231548052109F049FF0028A4
:1011680005DC134809F086FA00232370F8BD2178BE
:1011780021B9BDE8F8400F4809F07CBA0E480F4F76
:1011880009F066FA261D002523789D42EEDA01351E
:1011980036F8022C33462946384609F059FA0C36F7
:1011A800F2E700BF10CF0008BFDD000824040020CC
:1011B8003FDD000866DD000881DD000896DD0008D7
:1011C8002DE9F047074690460C4631B9154B1648AD
:1011D8001968BDE8F0470BF076BB144EDFF850A055
:1011E8000023336014251FFA85F99C2322464946BB
:1011F800504609F0FDFE002808DD2388BB4205D1D2
:101208000123A8F800903360BDE8F0870135282D48
:10121800E9D13368002BF7D12380BDE8F0470548B2
:1012280009F028BA10CF0008F0DD00081C040020DF
:10123800240400201DDE00082DE9F84F1F4F204C24
:10124800DFF88090DFF880A000233B6014251C4A5B
:101258009C23A9B2484609F0CBFE002809DC0135D9
:10126800282DF4D13B683BBBBDE8F84F174809F07F
:1012780001BA012350463B6009F0FCF9144A218B5E
:101288001448DFF854B009F0E3F9144B2288A17D23
:10129800134809F0DDF900262346A27DB24203F186
:1012A8000C08DCDD01362633B8F8182031465846DC
:1012B80009F0CEF94346F0E7BDE8F88F1C0400209A
:1012C8007A11002024040020B7000108A7DE0008D6
:1012D8009411002032DE000890DE00087C11002006
:1012E8004FDE0008F0B585B001AC84E80E00254A51
:1012F80025490546FFF764FFDFF88CC000229C20D3
:1013080000FB02F101EB0C033CF80110A94232D1B9
:101318009E7D132E20D8BDF8040000218E4221DCCA
:101328009C277A430C2503CC05FB062565446244BB
:1013380068622068E86201361448A962967509F067
:1013480099F91049104A098811483B4601F024FBD5
:10135800002815DC0F4800E00F4805B0BDE8F04054
:1013680009F088B99D8C854203F10C0301D10B4823
:10137800F3E70131D2E701320A2AC1D10848ECE784
:1013880005B0F0BDC01B00204E130020FADE000897
:101398002404002024DF0008BFDE0008DBDE00088C
:1013A8005ADF00082DE9F041214C00259C2202FB60
:1013B80005F31E19E75A87420ED1B77D3046002241
:1013C800974201DC1B482CE0B0F824C08C4500F1A2
:1013D8000C0006D00132F3E701350A2DE7D1164893
:1013E8001FE00C2101FB02F0BA1A24334A434118CA
:1013F800194418444FF09C0821440C3A204408FB37
:1014080005440BF0DAFA013F0C48A77509F032F9E8
:101418000B4843463246A9B201F0BEFA002804DC64
:101428000848BDE8F04109F025B9BDE8F08100BFE2
:101438004E13002093DF00085ADF00086ADF000817
:101448002404002024DF000870B500240B4E254634
:10145800A1B2304609F0C8FD00B101350134B4F538
:10146800206FF5D125B9BDE87040054809F002B9EB
:1014780029460448BDE8704009F0EAB82404002071
:10148800AFDF0008CADF000810B5164C1648A223C3
:1014980022464AF6FF2109F0ABFD00281FDD13485C
:1014A80009F0E8F8124809F0E5F8A11C114809F01C
:1014B800CFF82188104809F0CBF804F10C010F4847
:1014C80009F0C6F80E4809F0D5F80E4804F13E01B7
:1014D80009F0BEF80548BDE8104009F0CBB80A4845
:1014E800F9E700BFD810002024040020EEDF000830
:1014F80023E0000854E000086BE0000887E00008DB
:1015080099E00008B3E00008B9E0000838B50446DF
:1015180030B9104B10481968BDE838400BF0D3B902
:101528000E4D0F48A2232A464AF6FF2109F060FD16
:1015380000280BDD2946204631F8023B20F8023B03
:1015480009220BF0A4F90023E37238BD014B0548CA
:101558001968E1E710CF0008D4E00008D81000208F
:1015680024040020FFE000082DE9FF4704AC04E94B
:101578000700BDF804601F462EB9384809F07AF80C
:1015880004B0BDE8F0879DF806300BB93448F5E79C
:10159800344C2046FFF7D2FD2378002B47D0DFF8E4
:1015A800C89004F1040800252378AB4241DC2F4899
:1015B8002F4CDFF8C090DFF8C0A0FFF7A7FF4EF66A
:1015C8006123238014251FFA85F82A4A9C23414663
:1015D800504609F00DFD002838DA238827480133E2
:1015E8001322394623800BF052F92049244831F858
:1015F800023B23830025092265750BF048F909226F
:101608000DF106011F4884F82350A6840BF03FF91A
:101618000123A375164A184884F82F509C23414685
:1016280001F0BAF9A842CCBF17481848A6E71848ED
:10163800A4E74146484609F00BF86388B34208F12D
:101648000C0801D0134899E70135ADE70135B9F821
:1016580000302380282DB6D10F488FE744E10008D9
:1016680074E1000866190020D5E10008C21B0020BB
:1016780016120020B21200202404002018120020A4
:10168800301200203C12002028E2000843E2000843
:10169800A9E10008DEE1000871E2000830B40B4659
:1016A80000B129B9164B1748196830BC0BF00BB9B3
:1016B8009A2A03D8124B14481968F6E701461A46C5
:1016C80031F8024B22F8024B00F1160451F8045B82
:1016D80042F8045BA142F9D1827D9A758269C3F808
:1016E8001720C269C3F81B20026AC3F81F2000F143
:1016F800240130BC782203F123000BF050B900BF5D
:1017080010CF00089CE20008CFE2000870B504463C
:10171800A8B01425AEB211489C2301AA314609F09D
:1017280067FC002810DDBDF80430A3420CD1314617
:101738000A4809F059FC214620B9094808F088FFF1
:1017480028B070BD0748F9E70135322DE2D10648C7
:10175800214628B0BDE8704008F07ABF2404002074
:10176800FAE2000825E3000866E3000808B550B966
:101778000D4B0E4819680BF0A6F80D4808F07AFFD3
:101788004FF0FF3008BD03885BBA0B8043885BBA13
:101798004B80C31C03310D3013F8012F01F8012FC2
:1017A8008342F9D10120EDE710CF0008BFDD000822
:1017B80086E300087FB504AC04E90F000F4CBDF8C0
:1017C80000500F4ABDF8026021462846FFF7F8FC92
:1017D800A27D00239A4202DC4FF0FF3009E0A18C81
:1017E800B14204F10C0406D128463146FFF7DAFD70
:1017F800012004B070BD0133ECE700BF4E13002098
:10180800C01B002008B500B129B90B4808F032FF09
:101818004FF0FF3008BD03885BBA0B8043885BBA82
:101828004B80C31C03310D3013F8012F01F8012F31
:101838008342F9D10120EDE7B6E3000870B50C4604
:10184800054600B131B91F4B1F481968BDE8704003
:101858000BF039B88379F72B03D91A4B1B48196851
:10186800F4E71B4E3046FFF751FE3246194832F86E
:10187800021B08F0EDFE09F0D9F92B7823703388A4
:101888001B0A63703388A370AB881B0AE370AB88AC
:1018980023712B466FF0050613F8062F6271020AB2
:1018A800A2712246761B02F8070FA979F018814227
:1018B80003DC0C440023237270BD13F8011F02F8E7
:1018C800011FF2E710CF0008C9E30008F9E3000898
:1018D800CE1B002025E4000838B50C46054608B1A3
:1018E80001B132B91A4B1B481968BDE838400AF0F3
:1018F800EABF03780B70B0F801305BBA4B80B0F8E0
:1019080003305BBA8B8043798B71C3885BBA1380D1
:101918008B79F72B06D90E4B0F4819680AF0D3FFBD
:10192800F723A3712346EA1DC5F1FF2505F57F05B9
:1019380013F8061FF935A818884203DB0C44002366
:10194800E37138BD12F8010F03F8010FF3E700BF88
:1019580010CF000836E4000866E4000838B50C46E5
:1019680000B139B9114B124819680AF0ACFF4FF0B1
:10197800FF3038BD03881B0A0B700346224633F834
:10198800011B02F8011F00F10B0113F8015F02F8B7
:10199800015F8B42F9D10230FEF73CFD092801D9DD
:1019A8000020E6E704440023A370F9E710CF0008FD
:1019B800A8E400082DE9F041436887681B680669B8
:1019C80001248C401C420ED10B490C4A0C4840F2B1
:1019D800ED3309F0C6F90B4809F0C3F9074840F29E
:1019E800ED3109F0B5F9336823EA040333603B6845
:1019F800BDE8F041184700BF06E50008D5E4000837
:101A080044E5000861E5000837B54268012412681A
:101A18008C4014420ED10F490F4A104840F2FF5330
:101A280009F09FF90E4809F09CF90B4840F2FF5164
:101A380009F08EF90569836801A95B68984730B990
:101A48002A68019B5340234214BF0120002003B0A1
:101A580030BD00BF06E50008D5E4000844E50008ED
:101A680061E5000870B5144C01230A4603FA00F139
:101A7800636825691B6819420ED11049104A11483C
:101A88004FF4CB6309F06DF90F4809F06AF90C4877
:101A98004FF4CB6109F05CF92B68194218BF82F04A
:101AA80001022AB1A368DB680348BDE87040184703
:101AB800A3681B69F8E700BF18CB000806E5000813
:101AC800D5E4000844E5000861E500082DE9F04187
:101AD8003A480AF067FD38B9394808F0CBFD6FF08D
:101AE80012042046BDE8F08136480AF05BFD08B9CB
:101AF8003548F2E7354A31480021FFF75BFF041EFD
:101B080005DA22460121324808F0A2FDE9E72F4A0A
:101B18002C480121FFF74EFF041EF2DB29484FF441
:101B280000320921FFF746FF041E02DA2246092186
:101B3800E9E724484FF400320B21FFF73BFF041E6E
:101B480002DA22460B21DEE71E484FF400320F214D
:101B5800FFF730FF041E02DA22460F21D3E7174FA2
:101B6800DFF86080062500213846FFF74DFF012188
:101B780006464046FFF748FF041E03DA154822468A
:101B88000021C1E7BEB901210F20FFF76BFF00213B
:101B9800C82007F005FC01210F20FFF763FF002193
:101BA800C82007F0FDFB00210F20FFF75BFF013D78
:101BB800D9D12C4695E70021E6E700BF2CCB0008D9
:101BC80073E5000818CB000898E50008100001002C
:101BD800BDE50008E0E500082DE9F0413A480AF0C3
:101BE800E1FC38B9394808F045FD6FF01204204689
:101BF800BDE8F08136480AF0D5FC08B93548F2E767
:101C0800354A31480021FFF7D5FE041E05DA224681
:101C18000121324808F01CFDE9E72F4A2C48012130
:101C2800FFF7C8FE041EF2DB29484FF400320921F1
:101C3800FFF7C0FE041E02DA22460921E9E724481C
:101C48004FF400320B21FFF7B5FE041E02DA2246DC
:101C58000B21DEE71E484FF400320F21FFF7AAFEE2
:101C6800041E02DA22460F21D3E7174FDFF86080FF
:101C7800062500213846FFF7C7FE012106464046E3
:101C8800FFF7C2FE041E03DA154822460021C1E709
:101C9800BEB901210F20FFF7E5FE0021C82007F09B
:101CA8007FFB01210B20FFF7DDFE0021C82007F094
:101CB80077FB00210B20FFF7D5FE013DD9D12C463B
:101CC80095E70021E6E700BF2CCB000873E5000884
:101CD80018CB000898E5000810000100BDE50008D1
:101CE800E0E5000810B5094C0A44914200D110BD46
:101CF80011F8013B584003090001E35CC0B24340BE
:101D080018091B01205CDBB25840EEE7FFE500082C
:101D1800B2F5802F2DE9F0410ED33C493C4A3D48AD
:101D280040F2EB1309F01DF83B4809F01AF840F2AD
:101D3800EB11374809F00CF8042A0CD83749344A13
:101D480034484FF4F97309F00CF8354809F009F8EC
:101D58004FF4F971EDE7043ACD1D8E1825F007050B
:101D680026F00706761B172E4FEAD6070CD82D4902
:101D7800274A284840F2FB1308F0F3FF284808F0E8
:101D8800F0FF40F2FB11D4E7B7FA87F4C4F1200260
:101D9800C4F12404A4000734E408631C4FF00008CD
:101DA800BB420560AF60C5F80C800CD91E49184AC3
:101DB80018484FF4037308F0D4FF194808F0D1FF0E
:101DC8004FF40371B5E74146920005F110000AF09F
:101DD8000EFE630043F001036B8005EBC4023B1B5E
:101DE8005900A5F800805180AA1925F83440A2F8B6
:101DF8000280AB5305EBC70321465A8842F0010223
:101E08005A802846BDE8F04108F039BFDDE60008F1
:101E18000FE6000844E50008F3E600080AE70008B2
:101E28002BE7000844E700086DE700082DE9F04FAC
:101E380091B08407009302F004030293C2F3C20333
:101E480003F10103DDF86880039205460E46059309
:101E580040F0F581041D30B1072909D86FF01B0047
:101E680011B0BDE8F08F01F00706341DC6F1080671
:101E7800009B4FF00009013B4FF0040B0193CDF894
:101E880010904F464B464FF0FF32DA460DB100999D
:101E980021600598002800F3D7809848009981426E
:101EA80003D397488142C0F0CF800399A4EB050E75
:101EB80089074FEA9E0040F1E2804FF0000CCCE029
:101EC8007A285AD84B280CD8472856D829282AD8EF
:101ED800252851D051D8202877D023384342434170
:101EE80073E04C382E2848D8DFE800F06F474747A2
:101EF8004747474747474747494747474747474768
:101F080047594749495959596F496C476F471849C3
:101F1800184747807D49474749477D0000200023EF
:101F28004FF0040B39E02A38C0B2012101FA00F061
:101F380010EA0E0F49D110F0625C30D110EA0103AB
:101F480043D06046013C5C44B4FBFBF40BFB04F457
:101F5800002D60D0AAEB050CA444B4453FF67EAF33
:101F680000286AD1BAF1040F45D158F8040B206053
:101F780004344FF0040A28E0013A002325E0019BCD
:101F880013F8013C6C2B33D1019B13F8023C002061
:101F98006C2B0346C4D14FF0080BDA46D2E708F1A0
:101FA800070828F007080734F8E802AB24F007040C
:101FB80035B106982044B0423FF650AFC4E900ABB3
:101FC800083400234FF0080BDA46019911F8010F85
:101FD8000191002800F0BB80002B7FF471AF252809
:101FE800F3D1013201234FF0040BEDE7184696E7D1
:101FF80000200346A6E7BAF1080F40F09A8008F1DE
:10200800070828F00708F8E80201C4E900010834C5
:102018004FF0080AD9E780B9BAF1040F02D108F1E4
:102028000408A5E7BAF1080F40F0838008F1070813
:1020380028F0070808F10808E9E70599013905912A
:1020480058F8041B009121E7039988074AD5A4EBA7
:10205800050E4FEA9E004FF0010CBEF5007F1ED31F
:102068002849294A294840F27B2308F07AFE284863
:1020780008F077FE40F27B21234808F069FE0F2F15
:102088000FD8002D48D007F140010DEB010C0CF8DA
:10209800200C0CF8102C04980130049021E00F2F2C
:1020A8000CD91849184A19484FF4207308F059FEFA
:1020B800184808F056FE4FF42071DDE7CDB107F15E
:1020C80040010DEB010EC0B20EF8200C0EF8102CDA
:1020D800BCF1000FDFD060F07F000EF8200C09F192
:1020E80001090137C5F10801043406914FF6DA7E7B
:1020F8006BE7BCF1000F0FD00136F2E71CCA0008ED
:102108002808010874F8000898E7000844E5000862
:10211800C6E70008E7E70008029802360028E0D181
:102128000098CDE90632FEF775F9DDE90632064476
:10213800D7E7444A4449454840F2C52308F011FE10
:102148005146434808F00DFE40F2C52194E7631B51
:10215800B3F5806F0CD33C493A4A3C4840F2D1234E
:1021680008F0FFFD3B4808F0FCFD40F2D12183E771
:102178001DB9A6F10804E01872E6029A28609B08C7
:102188002B709DF81030C2B1EB7085F80290B9F150
:10219800000F05D008A80022C5F1010C97420ED106
:1021A800C5F101030DF120084FF0000A01930DF16C
:1021B800300B574512D1601B52E66B70E5E710F8FB
:1021C800013B190608D504EB0C0EB64503F07F0356
:1021D8003FF644AE04F8013B0132DFE7B9F1000FE6
:1021E80003D098F90020002A17DB029BD3B11AF814
:1021F8000B2004F8012B0022019B98182044B042C0
:102208003FF62CAE98F8000004F8010B00990392F1
:1022180020460AF0C4FB039A14440AF1010A08F1A3
:102228000108C6E798F8002055F822300093029B71
:1022380045F822300098FEF7EDF8421CDCE76FF015
:102248000D000DE698E7000874F8000844E500085A
:1022580001E8000816E80008014B1860704700BF45
:102268000400002080B505460E461746984607F03C
:10227800CFF803460AF0C4FBDFF81890044649F883
:102288000030424630463946A84754F8090001F064
:102298008BFC00BF10000000034A536823F00203C0
:1022A80053600020704700BF002004E0064B1A6806
:1022B80042F400721A601A6842F480621A60034B92
:1022C800034A1A6000207047004000584C01002063
:1022D80000093D0070B5838905680E0C090C86B0AD
:1022E80003FB0155CDE90453114B0393114B0293A2
:1022F800044600230822CDE9003218460E4904227C
:1023080008F08CFD3604A06AA289836829469B6878
:10231800984750B9E26AA38912793146204608F0F5
:102328003CFD002818BF6FF0050006B070BD00BF67
:1023380005EA000842E80008B4CD00082DE9F0439A
:1023480089B04B8804931D4B03931D4B02930824BB
:1023580000230746CDE900340D4618461949DFF831
:102368006890042208F05AFDF86A214608F066FDD4
:102378002C68241A80462C6004EA0906B44203D863
:10238800002009B0BDE8F083082306AA2146384694
:1023980008F0F5FC0028F4D106A9384608F058FDE5
:1023A80040B1BDF81A30BDF81C202C6006EA0906B9
:1023B80013441E44A4EB0804E0E700BFF0E900085A
:1023C80063E80008B4CD00080000FFFF70B588B0CE
:1023D80083880493114B0393114B02930025044601
:1023E80008230422CDE900530E492B46284608F05D
:1023F80015FD4FF6FF76A368ADF81A3006A8ADF8BC
:102408001860ADF81C508DF81E6008F0FEFC06A997
:10241800204608F0D8FD08B070BD00BFD5E9000817
:102428008AE80008B4CD00082DE9F04F04469BB0B7
:10243800C06A082108F002FD63681B0C1B040546EE
:1024480009A92046099308F0D3FCDDF824B0A68931
:102458005E44761B0CAA0823314620460A9608F0EB
:102468008EFC021EC0F2BB80E36A0CAA1979002315
:1024780012F8010B814240F0A1800133082BF7D1FB
:10248800A36862682B449A4280F09080594620469F
:10249800FFF720FF0246A2E0BDF83230360C3604C2
:1024A8001E440A960EAA0AA92046DDF828A008F0BC
:1024B80007FD0246002840F092800EA9204608F049
:1024C800C7FC18B9079B5345ECD1D9E763680B9350
:1024D80010AA0BA920460B9E08F0F2FC0246002821
:1024E8007DD1BDF84020BDF838309A4238D06268B6
:1024F8000B9B9A42ECD1B245E4D1BDF83C30002B9D
:10250800E0D00593BDF838300493374B0393374B2D
:10251800029308220023CDE90032184634490422E8
:1025280008F07CFCBDF83A704FEA1A431B041F44BC
:102538000EA8A368ADF83A3008F067FCE36ABDF866
:102548003C901E68764206F02006B9F1000F0ED1C5
:102558000EA9204608F037FD02460028B2D03EE01A
:1025680010A9204608F074FC0028C0D0C3E74E45E7
:10257800B04628BFC84612AA43463946204608F046
:10258800FEFB024658BB4346A16812AA204608F043
:10259800E1FC41460246E06A08F050FCA3680344A7
:1025A800A360E2B9A9EB08094744CEE72046FFF744
:1025B8000DFF024600283FF469AF10E0731B0CA919
:1025C8002046079308F05EFC00287FF465AF0AA94F
:1025D8002046FFF7B3FE024600283FF463AF1046DB
:1025E8001BB0BDE8F08F00BFE9E90008A7E80008C4
:1025F800B4CD00082DE9F04704468EB000F1140769
:1026080038460AF016F8A06A8368DB6898470346DC
:10261800E06230B9904A0090CDE901028F49012269
:102628000FE0A06A8368DB6898470368013B1F2BAB
:102638000FD98B4B02930023CDE900338749012240
:10264800184608F0EBFB6FF0150528460EB0BDE8FC
:10265800F087A06A21680BAA08F0FBFE08B1814B3D
:10266800E8E7A5892DB10C9BB5FBF3F203FB1255E6
:102678000DB17D4BDEE7E389012B05D87B4B009537
:10268800CDE901532B46C9E7E36A069593F8049010
:102698004FF0FF334FF0FF32384605F051F9E06A4A
:1026A800082108F0CBFBA8460646E3891FFA85FAFD
:1026B800534508D8E389434523D1384605F010FA35
:1026C8006FF02C05C1E7A1892B04891B13FA81F14E
:1026D8004A4608232046069108F05FFB78B106A910
:1026E800204608F085FB08F10108069908234A46A8
:1026F80020461FFA88F808F050FB0028DAD0013588
:10270800D3E753450BD1069908234A46891B20462F
:1027180008F043FB18B906A9204608F069FB06A98A
:102728002046FFF70BFE054618B1384605F0D8F9E4
:102738008BE7069B63604FEA13484FEA0848C4F8E2
:102748000880D4E9011399420FD3082307AA204629
:1027580008F015FB05460028E7D107AB13F8012B55
:10276800914543D10135082DF8D163681B0C1B0432
:1027780006A92046069308F03BFBA38906994A461A
:10278800204608F00AFB051ECFDB636800F0828054
:1027980006EB03084FF6FF79A389CDF818801FFAD6
:1027A80088F29B1B9A423DD3314B02930023184673
:1027B800CDE900332949032208F030FB616820463F
:1027C800FFF788FD05460028AFD16368294AA1892B
:1027D80013400B44A3EB460363601340A3602046F9
:1027E800FFF722FE0546002D70D09EE707A9204678
:1027F80008F02EFB626810B9921B6260A1E7BDF871
:102808002050BDF81E10E06AC4F80880294408F07A
:1028180015FB40449042A060EED1002DECD06FF043
:102828001C0590E0082309AA4146204608F0A7FAAB
:10283800054600287FF479AF09A9204608F008FB6F
:1028480038B1BDF824304B4503D1BDF82830002BF2
:102858007FD0B044A0E700BFD1E80008B4CD00089D
:10286800F3E8000810E9000828E900083CE9000836
:1028780099E900080000FFFF5B1A4A46204608F065
:102888008CFA051EFFF651AF08D0E26AA3681268F9
:102898001344A360D4E901318B42EDD86168A38960
:1028A80001EB46029A429ED1DFF8D480A26801EA81
:1028B80008039A4297D02046FFF70CFD05460028EA
:1028C8007FF433AF636803EA0803A360A389A2888F
:1028D800A3EB46039A4232D0384605F001F90123AA
:1028E8002374A3890493E38903930025254B02935A
:1028F80028462B46CDE900552349032208F08EFAD5
:102908006368214900959AB21B0C03931F4B0492EC
:10291800CDE9015328462B46032208F07FFAA36825
:10292800194900959AB21B0C0393194B0492CDE9EF
:10293800015303222B46284608F070FA85E6204604
:10294800FFF744FD0546384605F0CAF8002DC6D005
:102958007BE6104B0C490095CDE9015303222B4629
:10296800284608F05BFA63681B0C1B0406A920467E
:10297800069308F03DFA06992046FFF7ABFC31E7CD
:102988000000FFFF5FE90008B4CD000876E9000801
:1029980088E90008C0E900082DE9F04F1D4695B008
:1029A800037C06910446049273B9774A77490093E9
:1029B800CDE901321846012208F030FA6FF00C0612
:1029C800304615B0BDE8F08FC26A0821104608F0FD
:1029D80035FA29460590104608F030FAA389059A79
:1029E800A3EB8203AB420746C0F0CA801DB1049B2B
:1029F800002B00F0C580636809930AAA09A920463C
:102A0800DDF824A008F05CFA06460028D8D1BDF805
:102A18002830069A934206D06268099B9A42ECD104
:102A2800002D36D1CCE70AA9204608F011FA002873
:102A3800F2D0BDF82A80BDF82C3045B39D4228D18C
:102A4800E36ADDF810B01B684FEA1A4A5B424FEAA6
:102A58000A4A03F02003D0440793AA46DDF81C90E5
:102A6800D14528BFD1464B460CAA4146204608F01E
:102A780086F900284DD14A460CA9584609F0F7FEB8
:102A880038B9BAEB090AC844CB44E7D198E7002B18
:102A980096D0002F40D104F114084FF0FF324FF0C8
:102AA800FF33404604F04CFFDFF8E4A0E3899E4280
:102AB80063D0D4E90123F9188A4231D3069AADF8D4
:102AC80032300CA8FF23ADF830208DF83630ADF841
:102AD800345008F09AF92B46A168049A204608F069
:102AE80039FA29468346E06A08F0A8F9A36803443E
:102AF800A360BBF1000F07D10CA9204608F063FAC8
:102B0800002814BF8346AB46404604F0E9FF5E4602
:102B180056E7BEDC064653E7059B1F44BFB2BAE73B
:102B2800E06A082108F08AF94FF6FF73ADF83030F3
:102B380000218DF83630A389ADF83410111802EA57
:102B48000A021A44101A60600CA8ADF8321008F096
:102B58005CF90CA9204608F036FA211D204608F039
:102B680047F9636803EA0A03A3602046FFF75CFCA1
:102B780083460028C8D1013698E76FF01B0BC3E7DE
:102B88006FF015061CE700BFBDE80008B4CD0008CB
:102B98000000FFFF2DE9F0471E4688B0037CBDF812
:102BA800409004460F4690466BB92F4A2F49009330
:102BB800CDE901321846012208F030F96FF00C0017
:102BC80008B0BDE8F087C06A082108F037F9A38982
:102BD800A3EB4003B34243D3D4F804A0CDF814A028
:102BE80000254D455146DDF814A009D963685345C1
:102BF8001ED1BDF81830BB421AD06FF00100DFE7D4
:102C080006AA05A9204608F05BF90028D8D1BDF826
:102C18001830BB4206D106A9204608F019F908B1B8
:102C28000135ADB26268059B9A42DAD15146E0E7B8
:102C3800BDF81C30002BE0D0A945DED8BDF81A003D
:102C4800090CB3424FEA014128BF334601444246CA
:102C5800204608F094F80028B2D1BDF81C00AFE770
:102C68006FF01500ACE700BFBDE80008B4CD000860
:102C78002DE9F84FDFF8F8A03E4FAAEB07038F2B9A
:102C8800814688460BD93C493C4A3D4840F23F13AF
:102C980008F067F840F23F11384808F059F8394809
:102CA80008F0B7F90646002834D13C4605464FF0EF
:102CB800010B544527D93449304A31484FF4A6739B
:102CC80008F04FF8314808F04CF84FF4A671E3E7E4
:102CD800237B6BB12368DB680BB1204698472368D8
:102CE8001B6943B9636804221968204600F00AF991
:102CF80001361034DDE7204698470028F2D00BFA59
:102D080006F31D43F4E7E3D3B9F1000F02D04FF007
:102D1800010A0DB9BDE8F88FA94695FAA5F4B4FAE9
:102D280084F40AFA04F3260107EB04146FEA030B90
:102D380025EA0305237B5BB1BB591B699BB93E445C
:102D4800042273682046196809EA0B0900F0DAF8CA
:102D5800002DE2D1B8F1000F03D06420002106F065
:102D68001FFB4D46D5E7204698470028F0D1E6E7F7
:102D78001CCE00080CCE000850EA000823EA000820
:102D880044E500085C04002080EA0008A1EA000885
:102D9800014B53F82000704778CE000808B5034669
:102DA80008462BB1044A136000F0F0FA002008BD71
:102DB8006FF01500FBE700BF08000020054A064831
:102DC80000231370054A1360054A4FF47A711360A3
:102DD800FFF7E4BF012100200BB0000854040020D5
:102DE8005804002070B5134D297809BB0120FFF75E
:102DF8003FFF114C114EB44217D91149114A1248DC
:102E08004FF4DC7307F0ADFF104807F0AAFF0D4838
:102E18004FF4DC7107F09CFF63685B791BB1236892
:102E280020469B6898471034E5E7F5D301232B70BB
:102E380070BD00BF012100200CCE00081CCE000888
:102E480080EA000823EA000844E50008A1EA00082F
:102E580010B50446084808F0DCF85CB1BFF35B8F96
:102E6800064B53E8001F013943E80012002AF8D145
:102E7800BFF35B8F10BD00BF54040020580400202E
:102E880070B5124B124C1B68124E05469847A86045
:102E9800B44218D91049114A114840F2F31307F007
:102EA80060FF104807F05DFF0C4840F2F31107F08F
:102EB8004FFF63685B7923B1236829461B68204666
:102EC80098471034E4E7F4D370BD00BF0800002031
:102ED8000CCE00081CCE000880EA000823EA00088F
:102EE80044E50008A1EA0008044A054B9B1AB1EB27
:102EF800D30F34BF52F831000020704794CD00083A
:102F08000CCE00080E4BC31A1B11013310B5DBB2EF
:102F180048B90C490C480D4ADF2307F022FF0B483B
:102F2800DF2107F015FF4468237143689A714368ED
:102F38001960436801225A71BDE8104008F08BB847
:102F48000CCE000844EB000844E500080CEB000830
:102F58002DE9F04F85B002AFD7E90EA93D6B0446C5
:102F68000E4693469846BAF1000F17D0C7F804905A
:102F7800CDF8009010217A6B53460020FEF756FFDB
:102F8800011E0CDA2049214A214840F2631307F058
:102F9800E8FE40F263111D4807F0DAFE51461D4A6B
:102FA80004F007040BF0070BE40044EA8B1402EA70
:102FB8004122144344EA055417350D4425F007050A
:102FC800ADEB050D02ADBAF1000F13D0CDF80090AE
:102FD8007A6B534605F11000FEF728FF002809DA3E
:102FE80009490A4A0A4840F27D1307F0BAFE40F23E
:102FF8007D11D0E7434622463146284608F02EF890
:103008000C37BD46BDE8F08F90EB000864EB000874
:1030180044E5000800FE0F00406820B1034BC01AC9
:1030280040F3CF0070474FF0FF30704794CD000851
:103038000EB403B503AB014653F8042B04480193BF
:1030480001F03AF902B05DF804EB03B0704700BF35
:1030580097B00008CA0605D48B064CBF024903493D
:10306800FFF7E6BF704700BFB70001089AEB0008FA
:103078002DE9F04F89B09B46149B06939DF84CA010
:10308800159B0593169B179E049304460D46904680
:10309800BAF1000F00F0AD80BAF1040F0BD9A349C3
:1030A800A34AA44840F2622307F05BFE40F2622183
:1030B8009F4807F04DFE06F48073079307F0CCFF96
:1030C80006F00209024600283FD09B492046FFF738
:1030D800AFFF0746B9F1000F08D016F0440F36D1FC
:1030E80096492A462046FFF7A3FF074406F0010346
:1030F80053B1934B934953F82A20934B2046002A07
:1031080008BF1A46FFF794FF06F48073002B4AD0D5
:1031180006F00803002B64D1B8F1000F67D08B4983
:1031280042462046FFF784FF0546069B3D44002B98
:103138006ED1049B002B40F08380F30700F1F080F0
:1031480031462046FFF786FFE4E00746C2E7804B9A
:1031580018680028C9D07F4B4FF47A791B68B5FBF3
:10316800F3F54FF46161B5FBF0F300FB135509FB70
:1031780005F54FF03C0CB3FBF1F201FB1231B5FB46
:10318800F0FEB1FBFCF300FB1E550CFB131109FB11
:1031980005F50091B5FBF0F56F49CDE901E520464D
:1031A800FFF746FFA1E706F00803EBB16B4B6C494C
:1031B80053F82A202046FFF73BFF0546B8F1000FD9
:1031C80005D0624942462046FFF732FF0544BBF16D
:1031D800000FAAD063495A462046FFF729FF054445
:1031E800A3E74FF0000BE1E706F00805E6E74546E0
:1031F8009BE7BBF1010F069B06D1DBB9049B002BB3
:1032080000F0888000251BE0002BF7D0564812E01C
:103218005648069B5649224607F058FD00280CDA06
:103228005449434A43484FF42F7307F09AFD4FF42B
:103238002F713DE74D485546EBE7049B002B65D0C1
:10324800DFF83481DFF83491049F3146102F20468F
:1032580028BF1027FFF7FEFE4FF0000B5D4542DC4C
:10326800059B49461A782046FFF7E2FE4FF0010B0E
:103278001BF0070F03D141462046FFF7D9FE5F45F3
:1032880038D9059B494613F80B202046FFF7D0FE96
:103298000BF1010BBBF1100FEAD1394920464FF071
:1032A800000BFFF7C5FE5A46059B9A5CA2F1200168
:1032B8005F2928BF2E2233492046FFF7B9FE0BF1BC
:1032C800010BBBF1100F1AD01BF0070F03D14146B9
:1032D8002046FFF7ADFE5F455A46E5D841462046F1
:1032E800FFF7A6FEEBE741462046FFF7A1FE0BF1EC
:1032F800010BB3E724492046FFF79AFEC8E7059B70
:103308003B440593049BDB1B04939DD1BAF1000F4A
:103318007FF413AF204609B0BDE8F04F07F0E0BED8
:10332800094A08492046FFF783FE09E7D1EB000860
:10333800A2EB000844E50008DDEB0008E1EB00081B
:1033480088CE00086DF600089DEB000806EC000822
:103358006404002060040020EAEB00089CCE00080A
:103368000AEC000810EC0008B3B0000897B0000899
:10337800C142000815EC000826EC00081EEC000805
:1033880028EC00082AEC000824EC0008074A002171
:103398000123904206D8064A01B901231360054B60
:1033A8001860704740085B000121F2E740420F00B7
:1033B8006004002064040020F8B5074F0D46044659
:1033C8004618B44201D12846F8BD14F8011BBB6861
:1033D80001485B689847F4E740CB000810B543689C
:1033E8001C68094809F0DEF848B908490848094A3C
:1033F800992307F0B6FC0748992107F0A9FC236830
:103408005B685C6010BD00BF40CB00088BEC000817
:1034180044E500084DEC0008014B036000207047AC
:10342800E4CE000870B5064686B00D46002938D0AF
:103438008B6805934B6804930B6803930024244B13
:1034480024490293012223462046CDE9004407F08F
:10345800A6FE6B6905932B690493EB6803931E4BD7
:103468001C490094CDE9014301222346204607F078
:1034780096FEEB690393194B16490094CDE9014375
:1034880001222346204607F08AFEAB690393144BBA
:1034980010490094CDE9014301222346204607F054
:1034A8007EFE012E0DD1EFF30583103B03930D4BE8
:1034B80002930023CDE9003306493246184607F047
:1034C8006EFE2946304606B0BDE8704004F03CB8B0
:1034D800BFEC0008DCCD0008EEEC00081DED00088C
:1034E8002CED00085AED000830BFFFF7FDBF00BF04
:1034F8002DE9F0410B4EDFF8308006EB0807CC1BB6
:10350800054632460949204609F049FAA0194246BB
:103518000021083C09F06BFA6C6707F10800BDE868
:10352800F08100BF080000000400000020CE000861
:10353800074A936893F90E10002907DB52699342F2
:103548001FBF044A536843F080535360704700BF5D
:103558005C07002000ED00E0F0B585B000243B4B8F
:103568000293CDE90044234607460E460122384916
:10357800204607F02FFE374B9B6ADB0464D5364B99
:1035880033490094CDE9014320462346012207F040
:1035980021FE17202F4B9B6A1D050AD52F4B02933E
:1035A80000231846CDE900332949012207F012FE0D
:1035B8001820284DAB6A9C051FD50024284B2449A8
:1035C800029301222346CDE90044204607F002FE7B
:1035D800AB6BAA6A11040FD50393224B1C490094C4
:1035E800CDE9014301222346204607F0F3FD1FB130
:1035F800AB6A23F40043AB621920164B9B6A5A0549
:103608000AD5194B029300231846CDE90033104917
:10361800012207F0DFFD1A200E4B9B6ADB050AD555
:10362800124B029300231846CDE9003308490122C2
:1036380007F0D0FD1B20074A936A43F47F43936247
:103648000023337005B0F0BD1620A3E76DED000828
:10365800DCCD000800ED00E083ED000894ED0008E3
:10366800A7ED0008C0ED0008D5ED0008F0ED000852
:103678001FB50024374B029301222346CDE90044AD
:103688003549204607F0A6FD344B9B6A9A015ED562
:10369800334B31490094CDE90143204623460122AA
:1036A80007F098FD1E202D4B9B6ADB010AD52D4B98
:1036B800029300231846CDE900332749012207F079
:1036C80089FD1F20254B9B6A1C030AD5264B0293B4
:1036D80000231846CDE900331F49012207F07AFD7F
:1036E80021201E4B9B6A59030AD5204B02930023C5
:1036F8001846CDE900331849012207F06BFD222056
:10370800164B9B6A9A030AD5194B02930023184655
:10371800CDE900331049012207F05CFD23200F4B4F
:103728009B6ADB030AD5134B029300231846CDE9A5
:1037380000330949012207F04DFD2420074A936A06
:103748006FEA03436FEA1343936204B010BD1D2070
:10375800A9E700BF08EE0008DCCD000800ED00E096
:1037680020EE000833EE00084DEE00086BEE00086E
:1037780090EE0008AAEE00082DE9F04385B0002479
:103788004B4B0293CDE900442346804689462046A8
:1037980048491646012207F01DFD474B9B6AD8068B
:1037A80040D5464B0094CDE9014320462346414984
:1037B800012207F00FFD11243F4B9B6A19070AD518
:1037C8003F4B02930023CDE900333A4901221846C2
:1037D80007F000FD1224384DAB6A9A0724D500245F
:1037E800384B0293CDE90044234632490122204652
:1037F80007F0F0FC6F6BAB6A1B0643D5324B2D49C3
:103808000397CDE90143009423460122204607F09F
:10381800E1FCB9F1000F03D0AB6A23F08003AB627F
:10382800132403E01024C7E76FF01507224B9B6AA7
:10383800DD070AD5254B02930023CDE900331D4946
:103848000122184607F0C6FC14241B4DAB6AD806A3
:1038580002D4AB6A99070AD56B681A0507D54146A1
:10386800384600F0A5FA80B180F309880224124A8C
:10387800936A43F0FF03936220460023337005B038
:10388800BDE8F0836FF01507CAE7AB6ADB06EED533
:103898000F49104A104840F25D1307F062FA0F48CA
:1038A80007F05FFA0B4840F25D1107F051FA00BFCC
:1038B800D5EE0008DCCD000800ED00E0EBEE0008D6
:1038C80094ED00081EEF000836EF00084CEF0008E2
:1038D8009DEF00086BEF000844E50008E7EF0008DB
:1038E8002DE9F041894B0446586890B0C0F30806AA
:1038F800002383F31188BFF36F8F02F07F45B5F182
:103908007F4F0CD102F00C05082D17D1804A814950
:103918000093CDE901321846012207F05BFC7E498D
:103928007E4A7F484FF48B6307F01BFA7D4807F007
:1039380018FA4FF48B61794807F00AFA120746BF64
:103948000C461D460125002CE9D04FF00008F31E57
:103958008DF81F80092B00F2BF80DFE803F005B364
:10396800B796BDBDBDBDBDBB6F4B6A49674FCDF8AE
:103978000080CDE9018300230122184607F02AFCC4
:103988008DF81F80FE6A16F0020605D0674BCDF849
:103998000080CDE9018306E0FB6A002B0BDA644B5B
:1039A8000096CDE9016300235A490122184607F021
:1039B80011FC002230E0FB6A5B0076D55D4B55496F
:1039C8000096CDE9016301223346304607F002FC38
:1039D8007B69A26943F480737B61BFF34F8FBFF3A8
:1039E8006F8F7B6932F8022C23F480737B61BFF3FD
:1039F8004F8FBFF36F8F4DF602739A422CD1236815
:103A080003934D4B43490096CDE9016301223346A8
:103A1800304607F0DFFB22689DF81F30CBB908AEAF
:103A280004F1200720686168334603C30834BC42A8
:103A38001E46F7D10F9B002D62D0C3F3080121B9B0
:103A48006FEA53236FEA43230F9308A91046FFF741
:103A5800E9FC10B0BDE8F081BB6ADBB23BB10DF107
:103A68001F0201212046FFF787FE0246D4E7BB6A02
:103A780013F47F4F05D00DF11F010120FFF76CFDF6
:103A8800F3E7BB6AB3F5803F02D3FFF7F1FDECE73C
:103A98002A49224A224840F22A3307F062F9284884
:103AA80007F05FF940F22A3145E724491B4A1C48D0
:103AB80040F22E3307F055F9224807F052F940F248
:103AC8002E3138E70DF11F020021CBE70DF11F0160
:103AD8000020D3E71C4B5AE71C4A1D4B0D4910F434
:103AE800F87F18BF1346103ECDE90336194B0293F1
:103AF8000023CDE900330122184607F06BFB58E795
:103B080023F4FF7323F001039EE700BF00ED00E0FC
:103B180038F00008DCCD000863F000086BEF0008FF
:103B280044E5000876F00008B4F00008CBF000087F
:103B3800ECF00008FAF0000819F1000874F8000821
:103B480035F1000859F1000889F100081FF0000854
:103B58000AF00008ADF10008024A536943F0100367
:103B68005361704700ED00E0EFF30880EFF309813F
:103B780001B57246FFF7B4FE01BD00BF102080F307
:103B8800118808484FF40461401880F30988EFF35E
:103B980014800221084380F31488BFF36F8F00F06C
:103BA800D5F8000040220020084B9B6883420BD1C7
:103BB800EFF3058343B1064B5A6842F080525A60CE
:103BC8005A6A22F400425A6205F028BC5C070020B9
:103BD80000ED00E0094A93686FF00A01D9670849C7
:103BE80098674B6843F080534B60002383F3118838
:103BF800BFF36F8F9368D86F704700BF5C070020D2
:103C080000ED00E010B50446EFF31183102383F3B1
:103C18001288BFF36F8F0A4B58699860094B4FF0B1
:103C280000625A60084B426F1A600022836F8267F5
:103C380083F31188BFF36F8F00F022F9204610BD7F
:103C48005C07002000ED00E0940400200B498A681E
:103C58004FF030001044EFF3098C80E8F01F7446F1
:103C68007046FFF7CFFFA64604498A6802F1300084
:103C780090E8F01F8CF30988704700005C0700206B
:103C88001EF0040F0CBFEFF30880EFF30980816981
:103C980011F8021C0229FFD001B507F090FA01BD06
:103CA80040B2002807DB044A4109012300F01F0045
:103CB800834042F82130704700E100E040B200281C
:103CC8000CDB4309064900F01F0020330122824023
:103CD80041F82320BFF34F8FBFF36F8F704700BFAA
:103CE80000E100E038B54B1C0F2B04460D460FD9F8
:103CF800114A12491248582307F033F81148294647
:103D08000F23224607F02DF80B48582107F020F81A
:103D180040B20028ACBF00F160400B4A4FEA0313E1
:103D2800B8BF00F00F00DBB2AABF00F56140135422
:103D380080F8003338BD00BFC0F10008F7F1000873
:103D480044E5000812F2000814ED00E008B5084B3D
:103D5800084A23F07F039360BFF34F8FBFF36F8F41
:103D680003F00AFD05F03CFD00F060F803F056FD95
:103D78000000000800ED00E042F8203C009B42F8FB
:103D88001C3C0A49019B42F8183C029B42F8143C2F
:103D980021F001014FF0807342F8043C42F8081CFE
:103DA8000023203A02658367704700BF6D22000830
:103DB800094A0346906870B113F1160F406E05D09A
:103DC800A0F140029A4205D8834203D2814228BF1B
:103DD80000207047002070475C07002008B5154692
:103DE8000B4A0C4B9060426F1A600E4600F048F880
:103DF8002C4686F309884FF00000074B9847204669
:103E08004FF000014FF000024FF00003034C204731
:103E18005C0700209404002005B200086D22000809
:103E2800014B10221A61704700ED00E0044800239E
:103E38001021C21801333E2B82F80013F9D17047C4
:103E480000E100E008B5EFF30583064A103B02EBFA
:103E5800C30152F8330049688847BDE80840FFF7B6
:103E680067BB00BFA4CB0008024B034A03480121EB
:103E780000F096B80000012000000020E4CE000801
:103E8800426E054B403A1A60044A4021C3E90112C8
:103E98001846012100F0AAB89804002000000B156C
:103EA8001FB5144AD2F89030C3F30723013B984258
:103EB8000FD9114B029300230390CDE90033184624
:103EC8000E49012207F0BEF96FF0150005B05DF844
:103ED80004FBC2F898000B6823F01F03034343F068
:103EE8001003C2F89C308B6843F00103C2F8A0307D
:103EF800ECE700BF00ED00E056F20008D4CD000862
:103F0800F0B50E4689B01F4604460025B54212DAC0
:103F1800606838B3BFB1431E18420FD0134B0293E9
:103F28000023CDE90033124903950122184607F012
:103F380089F96FF01502104609B0F0BD1F28EDD9B8
:103F480021680B42EAD12368059307F06BF9A3684F
:103F580005A90343D0B20793FFF7A2FF10F1160F8C
:103F6800E7D0421C01350C34D0E700BF7CF20008D2
:103F7800D4CD0008044B0522C3F89420BFF34F8F1B
:103F8800BFF36F8F704700BF00ED00E0BFF35F8F96
:103F9800024B0022C3F89420704700BF00ED00E0F8
:103FA80038B50D4D01232A780C46FFF7A9FF287074
:103FB80016300FD1094A0A490A4840F2691306F037
:103FC800D0FE0948214606F0CCFE044840F26911AB
:103FD80006F0BEFE38BD00BF032100209FF2000896
:103FE80074F8000844E50008CEF2000810B5144A39
:103FF800002312780C46FFF783FF10F1160F08D044
:10400800104A0021D2F89030C3F30723984210DBFE
:1040180010BD0D4A0D490E484FF4C47306F0A1FEB9
:104028000C48214606F09DFE07484FF4C47106F07F
:104038008FFEC2F89800C2F8A0100130E2E700BF76
:104048000321002000ED00E09FF2000874F800084A
:1040580044E50008FAF200082DE9F0437D4C7E495A
:10406800D4F890300E68C3F307239E4289B013D961
:104078007A4A7B497B484FF4D07306F072FED4F835
:10408800902079483146C2F3072206F06AFE4FF4C1
:10409800D071724806F05CFEFFF778FF496800228D
:1040A800964201F10C012AD1704DDFF8C4812E70BF
:1040B80004A8FFF7B1F900260746B74232D12B789A
:1040C80064490020D1F89020C2F307229342C0F23D
:1040D800B680FFF74FFFD1F89030C3F30723082BC2
:1040E80000F0B38063495D4A5E484FF4047306F0FC
:1040F80038FE614806F035FE4FF40471C9E7C4F88C
:10410800982051F80C3C23F01F03134343F010038D
:10411800C4F89C3051F8043C43F00103C4F8A030C3
:104128000132BDE7049A02EB06133101D3F80C9073
:1041380009EA0804B4F5000F6DD01FD8B4F5001FC4
:1041480043D0B4F5800F5AD0B4F5801F26D04B4B1E
:1041580002930023CDE9003349490122184607F0AC
:1041680071F83F493D4A3F484FF4E57306F0F9FDC1
:10417800444806F0F6FD4FF4E5718AE7B4F1807F14
:1041880053D0B4F1007FE2D198685C68525807F0C8
:1041980049F8CDE9054240F480200AE098685C6857
:1041A800525807F03FF8CDE9054240F0885040F4F6
:1041B80030200790287805A9FFF772FE0028D0DB89
:1041C8002B7801332B70013677E798685C68525872
:1041D80007F028F840F0885040F4002019F0010F4B
:1041E800CDE905420790E5D027491C4A1D486C23B4
:1041F80006F0B7FD254806F0B4FD6C2149E798683C
:104208005C68525807F00EF840F00070CDE905429E
:1042180040F40030CDE798685C68525807F002F81F
:10422800CDE9054240F08270C3E798685C6852584F
:1042380006F0F8FFCDE9054240F08870B9E7C1F80B
:104248009830C1F8A00001333CE7002009B0BDE870
:10425800F08300BF00ED00E0F0CE00089FF20008F8
:1042680074F8000844E5000827F30008032100203B
:104278000000F0FFFCF300084CF40008B0F300085D
:10428800D4CD0008D2F300085BF3000881F30008DE
:1042980008B5024B1B689847002008BDA4040020FD
:1042A800034B044A1860937843F0020393707047F5
:1042B800A404002014000020F0B587B007460E467D
:1042C80014460021102268461D4608F090FB022380
:1042D8008DF802302A46054B019321466846CDE900
:1042E800047606F0E7F907B0F0BD00BF6DB200082C
:1042F80008B50649064821F00701C1F1005202F548
:104308008032FDF705FD002008BD00BF47340020BE
:10431800A80400202DE9F0410F4E104F0546002457
:104328004FF001082B7853FA84F01F280DDCF2684F
:1043380008FA00F333EA020207D1F36057F8303085
:104348001BB107EBC002516898476A780134E3B2A1
:104358009A42E7D2BDE8F08100080058B404002072
:10436800044B184400230133994200F8012BFADC6E
:10437800704700BF6001002010B4074B0749024690
:10438800D1F880401856012393402343C1F8803068
:1043980010BCFFF785BC00BF600100200008005872
:1043A8001F2808DC04490122D1F88030824023EA22
:1043B8000203C1F8803070470008005803292AD842
:1043C800DFE801F0020E141F134B01221968824026
:1043D80021EA02011960596821EA02025A6070470D
:1043E8000D4B0122196882401143F3E70A4B012261
:1043F8005968824011435960196821EA02021A601B
:104408007047012303FA00F0034B1A6802431A604D
:104418005A681043586070470008005830B50A4B76
:1044280053F830408C4204D103EBC0056D689542C7
:1044380005D034B943F8301003EBC0035A600020AC
:1044480030BD6FF00F00FBE7B4040020034B0022DF
:1044580043F8302003EBC0035A607047B4040020CF
:1044680010B51B4B18680B68062B144615D0092B82
:104478000AD893B1013B082B0FD8DFE803F01917CE
:104488002225270E0E1C1C00582B11D008D84C2BA7
:104498000ED0502B0CD0482B0AD06FF0850009E0C5
:1044A800602B05D0642B03D05C2BF5E74FF400405C
:1044B8002060002010BD00F0D9F8062358434008BA
:1044C800F6E74FF4FA40F3E70248F1E70020EFE798
:1044D8004C0100200024F40070B506F088FF02F0BB
:1044E80037FF4FF0B0435D4AD3F808315C4D03F015
:1044F8000F0352F823601368B0FBF6F6B5FBF3F52B
:10450800AE4202D2284602F095FF06F0FFFE0128CF
:1045180009D04FF0B042136843F48073136006F07B
:10452800F5FE0128FBD14FF0B043D3F8942042F0B8
:104538000102C3F89420D3F894209207FBD5494B85
:104548001A6842F480721A601A68D405FCD54FF0D4
:10455800B043D3F8902042F00102C3F89020D3F87A
:1045680090209007FBD5D3F8902042F08002C3F842
:1045780090204FF0B042D2F890301905FBD5394958
:104588000B6823F480730B60936803F00C030C2B07
:104598001CD106F0BBFE012807D0136843F48073D2
:1045A800136006F0B3FE0128FBD14FF0B0439A68C0
:1045B80022F0030242F001029A609A6802F00C02AB
:1045C800042AFAD19A6822F0F0029A604FF0B044B7
:1045D800236823F080732360E36823F0606343F06B
:1045E8000073E360E36843F08073E36000F042F82F
:1045F800236843F08073236023689B01FCD5A3687C
:1046080023F0F003A360A36843F00303A3604FF013
:10461800B042936803F00C030C2BFAD1AE4202D3DC
:10462800284602F007FF104B0D4A1A604FF0B043BE
:1046380000209A6822F4E0629A609A6822F4605234
:104648009A60D3F8082122F0F002C3F80821D3F8C1
:10465800082122F00F02C3F8082170BD9CD200087F
:10466800006CDC02000400584C0100200048704730
:104678000024F4004FF0B0430549DA681140054AB8
:104688000A43DA60DA6842F08052DA60704700BFA5
:104698008C80FF1F0206002008B5074807F082FF3C
:1046A80038B10648FFF7FCFD0448FDF7D5FD0020AA
:1046B80008BD6FF01200FBE740CB0008C9460008B0
:1046C8000A2838B5074D044604D1AB680D215B684C
:1046D80028469847AB6803485B68E1B2984720468C
:1046E80038BD00BF40CB00080048704728CF0008FD
:1046F80070B51C4686B00023164622460D4606F0C5
:10470800C3FE034668B90B4A0090CDE90102CDE922
:1047180003540949012206F0A0FE6FF0150006B007
:1047280070BD2CB1224605F10061304608F037F91A
:104738000020F4E7B5F40008A4CD00087FB50446CE
:1047480007F0FEFF0A220023FBF7F2FC23691B682F
:1047580010F132051A6941F1000644F2FA310A42B1
:1047680006D01A690A401A616FF0040004B070BDDF
:1047780023691B68186910F4A020F7D007F0E0FF40
:104788000A220023FBF7D4FC854276EB0101EFDA1D
:1047980032230393054B02930023CDE900330449E8
:1047A8000122184606F059FEDEE700BFDFF40008D4
:1047B800A4CD000870B5036906461D6849B1FFF726
:1047C800BDFF044650B13069043003F017FA2046A3
:1047D80070BD6B69002B06DB0024F8E76B6943F0BA
:1047E80000436B61F8E7034BAB6003F18833AB60C0
:1047F800F2E700BF23016745F0B5012387B00546FE
:104808000F46164606F040FE034670B9184A194985
:104818000090CDE90102CDE90376012206F01DFEE4
:104828006FF01504204607B0F0BDFEB1286906F008
:1048380024FE00212846FFF7BDFF044640B10121B0
:104848002846FFF7B7FF2869043003F0D7F9E9E7EE
:1048580032463946284606F041FE012104462846DC
:10486800FFF7A8FF002C08BF0446ECE73446D9E759
:10487800F0F40008A4CD00082DE9F0411E4686B0EA
:1048880001239046324605460F4606F0FDFD0346D5
:1048980078B91A4A1A490090CDE90102CDE90376A0
:1048A800012206F0DAFD6FF01504204606B0BDE8D7
:1048B800F08106B3286906F0E0FD00212846FFF7DD
:1048C80079FF044640B101212846FFF773FF2869A4
:1048D800043003F093F9E8E7334642463946284660
:1048E80000F022F8012104462846FFF763FF002C58
:1048F80008BF0446EBE73446D7E700BF1BF50008BE
:10490800A4CD00087FB50BAB05930393054B029329
:104918000023CDE9003301221846FEF719FB07B042
:104928005DF804FB6CF500082DE9F04F0646002001
:1049380085B00C46174698468146C8452AD929F0BD
:1049480007033B444FEAE902D3F804A0336957F858
:1049580032B01D686B69002B1ADB3046FFF7EEFE9C
:10496800002817DB04F100631A68013202D15A6883
:10497800013212D05BEA0A020FD0134B02930023D4
:10498800CDE900331149039401221846FFF7BAFF15
:104998006FF0040005B0BDE8F08F6A6942F00102CB
:1049A8006A616A69C3F800B03046C3F804A0FFF72B
:1049B800C5FE6B69002823F001036B61EADB09F18E
:1049C80008090834B9E700BF6CF50008ACCD000849
:1049D800074B186840B90748D0F8E005C0F34E0007
:1049E80018604FF4006058600B6001231360704733
:1049F800340500200070FF1F10B5036961B9204914
:104A0800204A21483A2306F0ACF9204806F0A9F9D3
:104A18003A211C4806F09CF9486850B91C49194AC3
:104A280019483B2306F09DF91A4806F09AF93B21EC
:104A3800EFE79868F8B1884219D1DC68086898608F
:104A4800A14200D1D860002008602AB19A680A60A3
:104A5800DA68996002B9D960002010E0814206D175
:104A680008682060D8688142EDD1DC60EBE7044635
:104A780000680028F2D1002AE8D16FF0150010BDB7
:104A8800D2F5000896F5000844E50008DBF50008B3
:104A9800EAF50008FCF5000838B5036904465860D3
:104AA800084D284607F07EFD40B16168AB680C31BF
:104AB8001B682846984700EAE07038BD6FF012007E
:104AC800FBE700BFB4CA000870B5D1E9016119B1AC
:104AD80001250C68854001B970BD8A682A4010D04C
:104AE8004B6863B90A490B4A0B485D2306F039F94C
:104AF8000A4806F036F907485D2106F029F93046DC
:104B080098471CB1236821461C46E4E72346FAE788
:104B180013F6000896F5000844E50008FCF50008BF
:104B280070B50C461146B1F5001F456802691E466E
:104B380024D104F00302043292000F23934043EA85
:104B4800940303F003022F49023251F82220190C72
:104B580002EA134391FAA1F2B2FA82F2D340AA68A8
:104B68009A4209D12046FFF71BFC2046FFF76EFC4E
:104B780000212046FFF722FC002070BDB1F5800F10
:104B880037D021492046FFF749FCA8BBB6F1806F12
:104B98002BD0B6F1C06F2AD0B6F1007F2FD10221F9
:104BA80004F0030304339B000F20984040EA94006C
:104BB80000F003039B0003F1804303F58033AD68E5
:104BC8009E68020C92FAA2F2B2FA82F202F00F0286
:104BD80026EA104005FA02F202439A602046FFF7DF
:104BE800EDFB2046FFF7C8FBC6E70121D8E7032104
:104BF800D6E76FF08500C0E76FF00F00BDE76FF0F4
:104C08001500BAE700000140D14A0008014803F046
:104C18009FBA00BF5C00002008B506F0ADFD024B4E
:104C28001B68C01A08BD00BF7C050020014807F0BA
:104C380089BD00BF900100200A2307B5A0FB03230C
:104C480000210020CDE90001024805F0F1F803B089
:104C58005DF804FB9001002008B506F08DFD014BBE
:104C6800186008BD7C050020014B1868704700BF1C
:104C78007C0500202DE9F347274C9A46D4E9019397
:104C880007460D4616467BB1244B00205B6B9847C0
:104C9800CDF800A0D4F80880206833462A46394663
:104CA800C04702B0BDE8F08704F140020223BFF319
:104CB8005B8F52E8001F012903D142E80030002829
:104CC800F7D1BFF35B8F9046EBD1A36C1A78AA4259
:104CD80088BF1D70A36C606C1A78394607F05FFEB8
:104CE800E36C03B11E80236D0BB183F800A00B4B5E
:104CF800DB6A984700216160BFF35B8F58E8003F8B
:104D080048E80012002AF9D1BFF35B8F484602B089
:104D1800BDE8F04705F004BC80050020C0D00008BD
:104D280010B5124CBFF35B8F022354E8002F012A01
:104D380003D144E800310029F7D1BFF35B8F0CBFE2
:104D48000120002010D10A4BDB6A9847002344F861
:104D58003C3CBFF35B8F54E8002F44E80031002946
:104D6800F9D1BFF35B8F012010BD00BFC005002043
:104D7800C0D0000810B5064B5C68FFF7D1FF30B112
:104D88002CB100212046BDE8104005F0C9BB10BD7C
:104D980080050020F0B5044687B000680E4607F08D
:104DA80001FC2568034670B92A680392574A584996
:104DB8000090CDE90102012206F000FD6FF0120516
:104DC800284607B0F0BDE3882179334313F0FC6F20
:104DD800D5E9010C2F690ED04E494F4A4F484FF480
:104DE800747305F0BEFF4E4805F0BBFF4FF47471B5
:104DF800494805F0ADFF03F03002302A0CD149498B
:104E0800454A464840F2D33305F0ABFF464805F023
:104E1800A8FF40F2D331EBE7444A454E1A40B2426C
:104E28000CD144493C4A3D4840F2D73305F099FF3C
:104E3800414805F096FF40F2D731D9E703F0060262
:104E4800042A09D13D49344A344840F2DA3305F09E
:104E580088FF40F2DA31CBE713F4402216D09E03E4
:104E68000CD437492C4A2D4840F2DD3305F079FF40
:104E7800344805F076FF40F2DD31B9E7B2F5402F4E
:104E880018D0314A9A4301D183F44023006801269F
:104E98008E40064223F4801219D12C491E4A1F481D
:104EA80040F2ED3305F05DFF294805F05AFF40F266
:104EB800ED319DE72749184A184840F2E13305F0DB
:104EC80050FF254805F04DFF40F2E13190E7386882
:104ED800DB074CBF3043B0433860DCF8003028466D
:104EE8009847054600283FF46BAF05902379049353
:104EF800236807491B680393184B02930023CDE9E5
:104F080000330122184606F059FC59E757F6000805
:104F1800FCCD000870F60008D5E4000844E5000858
:104F2800CDF60008F1F600082AF700080200030091
:104F38000200010067F70008AEF70008FDF7000857
:104F480030F8000876F800080100100006E50008AF
:104F580061E50008B1F80008F2F800081EF9000839
:104F680070B50D460F49BFF35B8F012051E8004F24
:104F7800002C03D141E80006002EF7D1BFF35B8F68
:104F88000CD1094E41F83C3CD4B2736D2146984788
:104F98002846B36A21469847002070BD6FF00F007D
:104FA800FBE700BFC0050020C0D000082DE9F0478E
:104FB80000258EB005ACDFF8A88081468A461746E2
:104FC8002946102209A80126CDE90544CDE907554F
:104FD80007F00DFD8DF83160D8F830300D94002BB6
:104FE8003BD023463A4651464846FFF7B9FF041ED0
:104FF8002FDBFFB2CDE901570396B8F83830194CCA
:10500800009398F8363098F8352098F83410646A88
:105018003046A0470A23B040A0FB0323314609A825
:1050280005F04CF9041E14DA0F4B10490095CDE930
:10503800015332462B46284606F0C0FBFFF770FEA8
:1050480038B94FF0FF324FF0FF33314609A805F069
:1050580035F920460EB0BDE8F0876FF01504F8E783
:1050680080050020C0D000083EF90008FCCD0008EB
:10507800F0B591B000248DF8172007AD0F46102227
:1050880021460BA8CDE90755CDE90944012607F0CB
:10509800AEFC244B8DF839600F95BFF35B8F53E856
:1050A800002FA24203D143E800610029F7D1BFF3E2
:1050B8005B8F34D10DF1170243E90F549A601A4DF2
:1050C800189ADA60199A1A615F60FF216B6D304691
:1050D80098476B6B20469847DDE9162331460BA8A5
:1050E80005F0ECF8051E0ADAFFF71AFE50B94FF082
:1050F800FF324FF0FF3331460BA805F0DFF89DF87B
:10510800175009E0094B0A490094CDE901430322ED
:105118002346204606F052FB284611B0F0BD6FF03A
:105128000F05F9E7C0050020C0D000085AF90008AB
:10513800FCCD000810B529B9FFF7F2FDD0B96FF022
:10514800150010BD0E4BBFF35B8F012053E8002FF5
:10515800002A03D143E80004002CF7D1BFF35B8F8A
:105168000AD1084C43F8381C636DFF219847636BDC
:10517800002098470020E4E76FF00F00E1E700BF48
:10518800C0050020C0D00008F0B52C4DBFF35B8FE0
:105198008BB00C46012755E8003F002B03D145E8AA
:1051A8000072002AF7D1BFF35B8F43D1244E2068E9
:1051B800F3689847E37A4BB32346103D04F1100790
:1051C800186859682A4603C20833BB421546F7D106
:1051D8004FF47A63089300220120237B0793CDE9DB
:1051E8000522CDE9032023890293A37901936379EA
:1051F8000093F569237994F90A10A847B36D607B89
:105208009847FFF78DFD00200BB0F0BD0997227B72
:10521800B569CDE90732CDE90533CDE903330A2273
:1052280002922289CDE900323846A3796279217940
:10523800A847E3E76FF00F00E6E700BFC0050020CE
:10524800C0D0000838B5084611461A460B4BBFF3C4
:105258005B8F012453E8005F002D04D143E8004C24
:10526800BCF1000FF6D1BFF35B8F04D1044BDB6BAD
:105278009847002038BD6FF00F00FBE7C0050020FD
:10528800C0D0000838B5104BBFF35B8F002453E83B
:10529800002F43E800410029F9D1BFF35B8F0B4988
:1052A8000B4D43F8341C0B4943F82C1C0A4943F8AE
:1052B800301C2A6843F8400CA3F134009047EB6A8D
:1052C8009847204638BD00BFC00500207D4D000826
:1052D800C0D000087D4C0008E3B700081FB50F4C8C
:1052E800E36953B90E4A0F490093CDE901321846D4
:1052F800022206F074FA04B010BD002098470A4B49
:105308001B6E03B1984794F82030002BF3D0034864
:1053180004B0BDE8104000F07FB900BFD4050020FC
:1053280078F90008F4CD0008C0D0000810B50123B2
:1053380003FA01F1436804691B6819420ED10E494A
:105348000E4A0F484FF4CB6305F00BFD0D4805F0EE
:1053580008FD0A484FF4CB6105F0FAFC23681942AE
:1053680018BF82F0010222B18368DB68BDE81040F3
:10537800184783681B69F9E706E50008D5E40008C3
:1053880044E5000861E50008024604210148FFF7EA
:10539800CDBF00BF04CB0008F0B54FF4B01147688B
:1053A80085B006462648FFF7F5FC20B16FF00404E7
:1053B800204605B0F0BD23484FF4B011FFF7EAFCD2
:1053C80005460028F2D12049204802F031FE304637
:1053D80000F02CF9044650B11D4B1E490095CDE94B
:1053E800015301222B46284606F0F9F9E0E7386810
:1053F80007F0D8F860B9184B02930023CDE90033C1
:1054080014490122184606F0EAF96FF01204CFE7B2
:10541800F86818B107F0C6F80028ECD03046FFF756
:1054280031FF051EC4DA0D4B02930023CDE900338A
:1054380008490122184606F0D2F92C46B8E700BF01
:10544800DCCF0008D4CF0008E5520008E0050020B2
:10545800A7F90008F4CD0008C5F90008DAF9000832
:10546800024605210148FFF761BF00BF04CB0008D1
:10547800014B93F820007047D405002008B5034677
:105488001048042B80F8203011D005D8BBB100207B
:10549800FFF7E6FF00200EE0053B022BF7D80020BF
:1054A800FFF772FFBDE808400120FFF7D9BF0020D1
:1054B800FFF7D6FF0120BDE80840FFF765BF06F0FB
:1054C8005FFAE4E7D4050020014BD861704700BFBC
:1054D800D405002010B5044C204606F036FA012306
:1054E80084F8203010BD00BFD405002010B5054C4D
:1054F800204600F089F800B910BD00210A2003F009
:105508004FFFF5E7D405002070B590B00D46DDE9F2
:105518001461CDE90A3108ABCDE90802CDE90C5296
:1055280004930CAA02230446CDE90E61CDE90623B3
:10553800059306F09BFA1248D5B9CEB9836811498C
:105548001D6804AA3346A84700280ADA0E4B0293BE
:1055580000230390CDE900330C490122184606F0D8
:105568003EF92378842B01D0FFF7C0FF10B070BD3F
:10557800836804491D68024806AB04AAE3E700BF34
:1055880068CB0008C0CF0008FDF90008F4CD00087A
:1055980070B5154D8AB0284600F03EF8C023ADF826
:1055A800143005AB069302230793012406AB089336
:1055B80009940E480E49836808AA1E680023B0475C
:1055C80000280CDA0B4B029300230390CDE900333B
:1055D80009492246184606F002F90AB070BDFFF7DD
:1055E80085FF85F82040F8E7D405002068CB00083F
:1055F800C0CF0008FDF90008F4CD0008014806F006
:10560800BDB900BFD4050020024B5869C0F3400063
:10561800704700BF00040058034B4FF48022C3F8C2
:1056280084213220FEF73CBB00E100E0002208B5EF
:1056380011463220FEF756FB054AD2F8903043F463
:105648008053C2F890303220FEF72AFB002008BDB4
:1056580000080058044A13680BB1002159724361CD
:10566800106006F0BCB900BFF805002037B5044645
:1056780001A806F094F86CB1174D2A68134673B95F
:1056880063682360012323816AB9FFF7E5FA20469E
:10569800FFF7E0FF01A806F08BF803B030BD9C428D
:1056A800F8D05B69EBE7FFF7B7FA236818442B6873
:1056B80020601A689042EAD35A69596911B95C6145
:1056C8006161E7E71168884202D913465269F4E735
:1056D8005C616261DEE700BFF8050020F8B5FFF7FE
:1056E800C3FA1C4C0546FFF7B7FA2368A3B1471B5A
:1056F8001E462D1A716929B95A692260DA68197229
:1057080042B9FEE70A68BA428CBF521900220A6001
:105718007669EFE718699047002623682BB9206857
:1057280080B9F8BD18699047F7E71D68FFF774FA64
:105738008542F4D223685A692260DA681E72002A08
:10574800F0D1FEE7437A002BEBD1BDE8F84006F034
:1057580046B900BFF805002037B5134D044601A827
:1057680006F01DF82B686BB164B10022A3422272C7
:1057780011D1597A5C6961B15A7244B120462C60E2
:1057880006F02DF901A806F013F803B030BDFFF7B5
:105798004DFA2C60F6E71A465B69002BF2D09C4262
:1057A800F9D163695361EDE7F805002007B5074BA8
:1057B8001B7840BAADF804002BB9022201A940F2C7
:1057C800BC6006F077F803B05DF804FB0621002002
:1057D80007B5074B1B7840BAADF804002BB9022275
:1057E80001A940F2BE6006F065F803B05DF804FB5D
:1057F8000621002010B50C4B1B7804469BB94FF4CA
:10580800D76006F08CF8C4F3002100F0FE000143D5
:105818004FF4D76006F062F8E1B240F2B960BDE833
:10582800104006F05BB810BD0621002013B50446F1
:1058380005F0E5FF04F0070314F004048DF80730C1
:1058480008BF084B4FF001020DF107014FF084002B
:1058580008BF1C7006F00EF80020FFF70FFE02B01C
:1058680010BD00BF0421002010B50446FFF732FE2A
:105878002046FFF729FEFFF78BFE002006F015F9FA
:1058880005F0C2FF05F0CCFF034B00221A70BDE8FB
:1058980010400120FFF7F2BD04210020134B98426D
:1058A80007B50BD94EF6E113ADF80430022201A971
:1058B800982005F0DFFF03B05DF804FB0C4B98421D
:1058C80002D94DF6D733EFE70A4B984202D94CF28A
:1058D800C153E9E7084B984202D948F27513E3E748
:1058E800064B9842E2D946F66B73DDE700E9A4352A
:1058F80080F8A9328044E52D000B6B1B40FC54193D
:1059080037B5104D2B7804461BB9FFF7C7FF0123A5
:105918002B7043F6095241F68463B4FBF2F102FBA3
:10592800114403EB8433B3FBF2F3042203EB81331A
:105938001BBA0DEB02018620019305F09BFF03B013
:1059480030BD00BF0421002007B5064B8DF80700C5
:10595800187001220DF107018A2005F08BFF03B0B2
:105968005DF804FB06210020014B1878704700BF42
:105978000621002013B5224A0446516810686B4678
:1059880003C3204B20781B78834201D0FFF7DCFF4C
:1059980023781BB1012B2ED002B010BD62681A4BC0
:1059A800B3FBF2F31A0C8DF800201A0A8DF80120C7
:1059B8008DF80230A268237B8DF8033043F6095135
:1059C800637BB2FBF1F08DF8043001FB102241F645
:1059D800846303EB8233B3FBF1F303EB80331A0CDC
:1059E8005BBA8DF80520ADF80630082269468B2091
:1059F80005F040FFD0E7236900930422F6E700BFD3
:105A08005CCE0008062100200000093D1FB52B4A86
:105A18000446D1689068127C01AB03C31A70284B06
:105A280020781B78834201D0FFF78EFF23781BB1C3
:105A3800012B31D004B010BD637AF12B20D14FF681
:105A4800FF70FFF7B3FE48F20500FFF7C1FE02231F
:105A58006288A188ADF8061052BAE188ADF8042032
:105A68008DF80B30227AA37A8DF80A20ADF8081049
:105A78008DF80C30092201A98C2005F0FBFED9E72E
:105A8800F22BE5D141F60F50FFF790FE41F22100CD
:105A9800FFF79EFE0623DBE7A3890A4A5BBAADF847
:105AA8000430A37B13708DF80630E37B8DF8073044
:105AB800238AADF808300622DDE700BF5CCE000877
:105AC800062100200521002037B505460C46022294
